{
    "contractName": "meVesting",
    "abi": [
        {
            "inputs": [],
            "payable": false,
            "stateMutability": "nonpayable",
            "type": "constructor"
        },
        {
            "anonymous": false,
            "inputs": [
                {
                    "indexed": true,
                    "internalType": "uint256",
                    "name": "streamId",
                    "type": "uint256"
                },
                {
                    "indexed": true,
                    "internalType": "address",
                    "name": "sender",
                    "type": "address"
                },
                {
                    "indexed": true,
                    "internalType": "address",
                    "name": "recipient",
                    "type": "address"
                },
                {
                    "indexed": false,
                    "internalType": "uint256",
                    "name": "senderBalance",
                    "type": "uint256"
                },
                {
                    "indexed": false,
                    "internalType": "uint256",
                    "name": "recipientBalance",
                    "type": "uint256"
                }
            ],
            "name": "CancelStream",
            "type": "event"
        },
        {
            "anonymous": false,
            "inputs": [
                {
                    "indexed": true,
                    "internalType": "uint256",
                    "name": "streamId",
                    "type": "uint256"
                },
                {
                    "indexed": true,
                    "internalType": "address",
                    "name": "sender",
                    "type": "address"
                },
                {
                    "indexed": true,
                    "internalType": "address",
                    "name": "recipient",
                    "type": "address"
                },
                {
                    "indexed": false,
                    "internalType": "uint256",
                    "name": "deposit",
                    "type": "uint256"
                },
                {
                    "indexed": false,
                    "internalType": "address",
                    "name": "tokenAddress",
                    "type": "address"
                },
                {
                    "indexed": false,
                    "internalType": "uint256",
                    "name": "startTime",
                    "type": "uint256"
                },
                {
                    "indexed": false,
                    "internalType": "uint256",
                    "name": "stopTime",
                    "type": "uint256"
                }
            ],
            "name": "CreateStream",
            "type": "event"
        },
        {
            "anonymous": false,
            "inputs": [
                {
                    "indexed": true,
                    "internalType": "uint256",
                    "name": "streamId",
                    "type": "uint256"
                },
                {
                    "indexed": true,
                    "internalType": "address",
                    "name": "recipient",
                    "type": "address"
                },
                {
                    "indexed": false,
                    "internalType": "uint256",
                    "name": "amount",
                    "type": "uint256"
                }
            ],
            "name": "WithdrawFromStream",
            "type": "event"
        },
        {
            "constant": true,
            "inputs": [
                {
                    "internalType": "uint256",
                    "name": "streamId",
                    "type": "uint256"
                },
                {
                    "internalType": "address",
                    "name": "who",
                    "type": "address"
                }
            ],
            "name": "balanceOf",
            "outputs": [
                {
                    "internalType": "uint256",
                    "name": "balance",
                    "type": "uint256"
                }
            ],
            "payable": false,
            "stateMutability": "view",
            "type": "function"
        },
        {
            "constant": false,
            "inputs": [
                {
                    "internalType": "uint256",
                    "name": "streamId",
                    "type": "uint256"
                }
            ],
            "name": "cancelStream",
            "outputs": [
                {
                    "internalType": "bool",
                    "name": "",
                    "type": "bool"
                }
            ],
            "payable": false,
            "stateMutability": "nonpayable",
            "type": "function"
        },
        {
            "constant": false,
            "inputs": [
                {
                    "internalType": "address",
                    "name": "recipient",
                    "type": "address"
                },
                {
                    "internalType": "uint256",
                    "name": "deposit",
                    "type": "uint256"
                },
                {
                    "internalType": "address",
                    "name": "tokenAddress",
                    "type": "address"
                }
            ],
            "name": "createStream",
            "outputs": [
                {
                    "internalType": "uint256",
                    "name": "",
                    "type": "uint256"
                }
            ],
            "payable": false,
            "stateMutability": "nonpayable",
            "type": "function"
        },
        {
            "constant": true,
            "inputs": [
                {
                    "internalType": "uint256",
                    "name": "streamId",
                    "type": "uint256"
                }
            ],
            "name": "deltaOf",
            "outputs": [
                {
                    "internalType": "uint256",
                    "name": "delta",
                    "type": "uint256"
                }
            ],
            "payable": false,
            "stateMutability": "view",
            "type": "function"
        },
        {
            "constant": true,
            "inputs": [
                {
                    "internalType": "uint256",
                    "name": "streamId",
                    "type": "uint256"
                }
            ],
            "name": "getStream",
            "outputs": [
                {
                    "internalType": "address",
                    "name": "sender",
                    "type": "address"
                },
                {
                    "internalType": "address",
                    "name": "recipient",
                    "type": "address"
                },
                {
                    "internalType": "uint256",
                    "name": "deposit",
                    "type": "uint256"
                },
                {
                    "internalType": "address",
                    "name": "tokenAddress",
                    "type": "address"
                },
                {
                    "internalType": "uint256",
                    "name": "startTime",
                    "type": "uint256"
                },
                {
                    "internalType": "uint256",
                    "name": "stopTime",
                    "type": "uint256"
                },
                {
                    "internalType": "uint256",
                    "name": "remainingBalance",
                    "type": "uint256"
                },
                {
                    "internalType": "uint256",
                    "name": "ratePerSecond",
                    "type": "uint256"
                }
            ],
            "payable": false,
            "stateMutability": "view",
            "type": "function"
        },
        {
            "constant": true,
            "inputs": [],
            "name": "gov",
            "outputs": [
                {
                    "internalType": "address",
                    "name": "",
                    "type": "address"
                }
            ],
            "payable": false,
            "stateMutability": "view",
            "type": "function"
        },
        {
            "constant": true,
            "inputs": [],
            "name": "nextStreamId",
            "outputs": [
                {
                    "internalType": "uint256",
                    "name": "",
                    "type": "uint256"
                }
            ],
            "payable": false,
            "stateMutability": "view",
            "type": "function"
        },
        {
            "constant": false,
            "inputs": [
                {
                    "internalType": "address",
                    "name": "_gov",
                    "type": "address"
                }
            ],
            "name": "setGov",
            "outputs": [],
            "payable": false,
            "stateMutability": "nonpayable",
            "type": "function"
        },
        {
            "constant": false,
            "inputs": [],
            "name": "turnOnWithdrawals",
            "outputs": [],
            "payable": false,
            "stateMutability": "nonpayable",
            "type": "function"
        },
        {
            "constant": false,
            "inputs": [
                {
                    "internalType": "uint256",
                    "name": "streamId",
                    "type": "uint256"
                },
                {
                    "internalType": "uint256",
                    "name": "amount",
                    "type": "uint256"
                }
            ],
            "name": "withdrawFromStream",
            "outputs": [
                {
                    "internalType": "bool",
                    "name": "",
                    "type": "bool"
                }
            ],
            "payable": false,
            "stateMutability": "nonpayable",
            "type": "function"
        },
        {
            "constant": true,
            "inputs": [],
            "name": "withdrawable",
            "outputs": [
                {
                    "internalType": "bool",
                    "name": "",
                    "type": "bool"
                }
            ],
            "payable": false,
            "stateMutability": "view",
            "type": "function"
        }
    ],
    "bytecode": "608060405234801561001057600080fd5b5060008054600180805560ff199091161762010000600160b01b031916336201000002178155611adb90819061004690396000f3fe608060405234801561001057600080fd5b50600436106100a95760003560e01c80637a9b2c6c116100715780637a9b2c6c14610151578063894e9a0d14610174578063912cb95c146101e4578063a82ccd4d146101ee578063cfad57a21461020b578063f07703bd14610231576100a9565b806312d43a51146100ae5780631e99d569146100d25780633656eec2146100ec57806350188301146101185780636db9241b14610134575b600080fd5b6100b6610267565b604080516001600160a01b039092168252519081900360200190f35b6100da61027c565b60408051918252519081900360200190f35b6100da6004803603604081101561010257600080fd5b50803590602001356001600160a01b0316610282565b610120610567565b604080519115158252519081900360200190f35b6101206004803603602081101561014a57600080fd5b5035610575565b6101206004803603604081101561016757600080fd5b5080359060200135610a65565b6101916004803603602081101561018a57600080fd5b5035610f37565b604080516001600160a01b03998a168152978916602089015287810196909652939096166060860152608085019190915260a084015260c083019390935260e08201929092529051908190036101000190f35b6101ec61100b565b005b6100da6004803603602081101561020457600080fd5b50356110c7565b6101ec6004803603602081101561022157600080fd5b50356001600160a01b0316611203565b6100da6004803603606081101561024757600080fd5b506001600160a01b03813581169160208101359160409091013516611282565b6000546201000090046001600160a01b031681565b60015481565b6000828152600260205260408120600701548390600160a01b900460ff166102e9576040805162461bcd60e51b81526020600482015260156024820152741cdd1c99585b48191bd95cc81b9bdd08195e1a5cdd605a1b604482015290519081900360640190fd5b6102f1611940565b50600084815260026020818152604092839020835161012081018552815481526001820154928101929092529182015492810192909252600381015460608301526004810154608083015260058101546001600160a01b0390811660a08401526006820154811660c084015260079091015490811660e0830152600160a01b900460ff1615156101008201526103856119a9565b6000610390876110c7565b90506103a081846020015161188a565b60208401819052838260038111156103b457fe5b60038111156103bf57fe5b90525060009050825160038111156103d357fe5b1461040f5760405162461bcd60e51b8152600401808060200182810382526023815260200180611a4d6023913960400191505060405180910390fd5b6040830151835111156104b45761042e836000015184604001516118cc565b604084018190528382600381111561044257fe5b600381111561044d57fe5b905250600090508251600381111561046157fe5b1461046857fe5b61047a826020015183604001516118cc565b602084018190528382600381111561048e57fe5b600381111561049957fe5b90525060009050825160038111156104ad57fe5b146104b457fe5b8260a001516001600160a01b0316866001600160a01b031614156104e057506020015192506105609050565b8260c001516001600160a01b0316866001600160a01b0316141561055857610510836040015183602001516118cc565b606084018190528382600381111561052457fe5b600381111561052f57fe5b905250600090508251600381111561054357fe5b1461054a57fe5b506060015192506105609050565b600094505050505b5092915050565b600054610100900460ff1681565b6000805460ff166105cd576040805162461bcd60e51b815260206004820152601f60248201527f5265656e7472616e637947756172643a207265656e7472616e742063616c6c00604482015290519081900360640190fd5b6000805460ff19168155828152600260205260409020600701548290600160a01b900460ff1661063c576040805162461bcd60e51b81526020600482015260156024820152741cdd1c99585b48191bd95cc81b9bdd08195e1a5cdd605a1b604482015290519081900360640190fd5b60008381526002602052604090206006015483906001600160a01b031633148061067f57506000818152600260205260409020600501546001600160a01b031633145b6106ba5760405162461bcd60e51b8152600401808060200182810382526037815260200180611a706037913960400191505060405180910390fd5b600054610100900460ff16610709576040805162461bcd60e51b815260206004820152601060248201526f6e6f7420776974686472617761626c6560801b604482015290519081900360640190fd5b610711611940565b506000848152600260208181526040808420815161012081018352815481526001820154938101939093529283015490820152600382015460608201526004820154608082015260058201546001600160a01b0390811660a08301526006830154811660c0830181905260079093015490811660e0830152600160a01b900460ff16151561010082015291906107a8908790610282565b905060006107ba878460a00151610282565b60008881526002602081905260408220828155600181018390559081018290556003810182905560048101919091556005810180546001600160a01b0319908116909155600682018054909116905560070180546001600160a81b031916905560e0840151909150811561090957806001600160a01b031663a9059cbb8560a00151846040518363ffffffff1660e01b815260040180836001600160a01b03166001600160a01b0316815260200182815260200192505050602060405180830381600087803b15801561088c57600080fd5b505af11580156108a0573d6000803e3d6000fd5b505050506040513d60208110156108b657600080fd5b5051610909576040805162461bcd60e51b815260206004820181905260248201527f726563697069656e7420746f6b656e207472616e73666572206661696c757265604482015290519081900360640190fd5b82156109f057806001600160a01b031663a9059cbb8560c00151856040518363ffffffff1660e01b815260040180836001600160a01b03166001600160a01b0316815260200182815260200192505050602060405180830381600087803b15801561097357600080fd5b505af1158015610987573d6000803e3d6000fd5b505050506040513d602081101561099d57600080fd5b50516109f0576040805162461bcd60e51b815260206004820152601d60248201527f73656e64657220746f6b656e207472616e73666572206661696c757265000000604482015290519081900360640190fd5b8360a001516001600160a01b03168460c001516001600160a01b0316897fca3e6079b726e7728802a0537949e2d1c7762304fa641fb06eb56daf2ba8c6b98686604051808381526020018281526020019250505060405180910390a450506000805460ff191660011790555092949350505050565b6000805460ff16610abd576040805162461bcd60e51b815260206004820152601f60248201527f5265656e7472616e637947756172643a207265656e7472616e742063616c6c00604482015290519081900360640190fd5b6000805460ff19168155838152600260205260409020600701548390600160a01b900460ff16610b2c576040805162461bcd60e51b81526020600482015260156024820152741cdd1c99585b48191bd95cc81b9bdd08195e1a5cdd605a1b604482015290519081900360640190fd5b60008481526002602052604090206006015484906001600160a01b0316331480610b6f57506000818152600260205260409020600501546001600160a01b031633145b610baa5760405162461bcd60e51b8152600401808060200182810382526037815260200180611a706037913960400191505060405180910390fd5b600054610100900460ff16610bf9576040805162461bcd60e51b815260206004820152601060248201526f6e6f7420776974686472617761626c6560801b604482015290519081900360640190fd5b60008411610c3f576040805162461bcd60e51b815260206004820152600e60248201526d616d6f756e74206973207a65726f60901b604482015290519081900360640190fd5b610c47611940565b50600085815260026020818152604092839020835161012081018552815481526001820154928101929092529182015492810192909252600381015460608301526004810154608083015260058101546001600160a01b0390811660a08401526006820154811660c084015260079091015490811660e0830152600160a01b900460ff161515610100820152610cdb6119d2565b6000610ceb888460a00151610282565b905086811015610d2c5760405162461bcd60e51b8152600401808060200182810382526024815260200180611a076024913960400191505060405180910390fd5b610d3a8360400151886118cc565b60008a81526002602081905260409091200181905583826003811115610d5c57fe5b6003811115610d6757fe5b9052506000905082516003811115610d7b57fe5b14610d8257fe5b60008881526002602081905260409091200154610dfa5760008881526002602081905260408220828155600181018390559081018290556003810182905560048101919091556005810180546001600160a01b0319908116909155600682018054909116905560070180546001600160a81b03191690555b8260e001516001600160a01b031663a9059cbb8460a00151896040518363ffffffff1660e01b815260040180836001600160a01b03166001600160a01b0316815260200182815260200192505050602060405180830381600087803b158015610e6257600080fd5b505af1158015610e76573d6000803e3d6000fd5b505050506040513d6020811015610e8c57600080fd5b5051610ed8576040805162461bcd60e51b8152602060048201526016602482015275746f6b656e207472616e73666572206661696c75726560501b604482015290519081900360640190fd5b8260a001516001600160a01b0316887f36c3ab437e6a424ed25dc4bfdeb62706aa06558660fab2dab229d2555adaf89c896040518082815260200191505060405180910390a350506000805460ff191660011790555091949350505050565b600080600080600080600080886002600082815260200190815260200160002060070160149054906101000a900460ff16610fb1576040805162461bcd60e51b81526020600482015260156024820152741cdd1c99585b48191bd95cc81b9bdd08195e1a5cdd605a1b604482015290519081900360640190fd5b505050600096875250506002602081905260409095206006810154600582015482546007840154600385015460048601549a8601546001909601546001600160a01b039586169c9486169b939a5094909116975095509350565b6000546201000090046001600160a01b03163314611059576040805162461bcd60e51b8152602060048083019190915260248201526310b3b7bb60e11b604482015290519081900360640190fd5b600054610100900460ff16156110b6576040805162461bcd60e51b815260206004820152601b60248201527f7769746864726177616c7320616c726561647920656e61626c65640000000000604482015290519081900360640190fd5b6000805461ff001916610100179055565b6000818152600260205260408120600701548290600160a01b900460ff1661112e576040805162461bcd60e51b81526020600482015260156024820152741cdd1c99585b48191bd95cc81b9bdd08195e1a5cdd605a1b604482015290519081900360640190fd5b611136611940565b506000838152600260208181526040928390208351610120810185528154815260018201549281019290925291820154928101929092526003810154606083018190526004820154608084015260058201546001600160a01b0390811660a08501526006830154811660c085015260079092015491821660e0840152600160a01b90910460ff16151561010083015242116111d55760009250506111fd565b80608001514210156111ee5760600151420391506111fd565b80606001518160800151039250505b50919050565b6000546201000090046001600160a01b03163314611258576040805162461bcd60e51b815260206004820152600d60248201526c33b7bb1d1036bab9ba1033b7bb60991b604482015290519081900360640190fd5b600080546001600160a01b03909216620100000262010000600160b01b0319909216919091179055565b60006001600160a01b0384166112df576040805162461bcd60e51b815260206004820152601a60248201527f73747265616d20746f20746865207a65726f2061646472657373000000000000604482015290519081900360640190fd5b6001600160a01b03841630141561133d576040805162461bcd60e51b815260206004820152601d60248201527f73747265616d20746f2074686520636f6e747261637420697473656c66000000604482015290519081900360640190fd5b6001600160a01b038416331415611392576040805162461bcd60e51b815260206004820152601460248201527339ba3932b0b6903a37903a34329031b0b63632b960611b604482015290519081900360640190fd5b600083116113d9576040805162461bcd60e51b815260206004820152600f60248201526e6465706f736974206973207a65726f60881b604482015290519081900360640190fd5b426252467f198101906305a39a800181811161143c576040805162461bcd60e51b815260206004820152601f60248201527f73746f702074696d65206265666f7265207468652073746172742074696d6500604482015290519081900360640190fd5b6114446119e4565b61144e82846118cc565b602083018190528282600381111561146257fe5b600381111561146d57fe5b905250600090508151600381111561148157fe5b1461148857fe5b80602001518610156114e1576040805162461bcd60e51b815260206004820152601f60248201527f6465706f73697420736d616c6c6572207468616e2074696d652064656c746100604482015290519081900360640190fd5b806020015186816114ee57fe5b061561152b5760405162461bcd60e51b8152600401808060200182810382526022815260200180611a2b6022913960400191505060405180910390fd5b6115398682602001516118ef565b604083018190528282600381111561154d57fe5b600381111561155857fe5b905250600090508151600381111561156c57fe5b1461157357fe5b6000600154905060405180610120016040528088815260200183604001518152602001888152602001858152602001848152602001896001600160a01b03168152602001336001600160a01b03168152602001876001600160a01b031681526020016001151581525060026000838152602001908152602001600020600082015181600001556020820151816001015560408201518160020155606082015181600301556080820151816004015560a08201518160050160006101000a8154816001600160a01b0302191690836001600160a01b0316021790555060c08201518160060160006101000a8154816001600160a01b0302191690836001600160a01b0316021790555060e08201518160070160006101000a8154816001600160a01b0302191690836001600160a01b031602179055506101008201518160070160146101000a81548160ff0219169083151502179055509050506116d9600154600161191a565b6001819055838260038111156116eb57fe5b60038111156116f657fe5b905250600090508251600381111561170a57fe5b1461175c576040805162461bcd60e51b815260206004820181905260248201527f6e6578742073747265616d2069642063616c63756c6174696f6e206572726f72604482015290519081900360640190fd5b604080516323b872dd60e01b81523360048201523060248201526044810189905290516001600160a01b038816916323b872dd9160648083019260209291908290030181600087803b1580156117b157600080fd5b505af11580156117c5573d6000803e3d6000fd5b505050506040513d60208110156117db57600080fd5b5051611827576040805162461bcd60e51b8152602060048201526016602482015275746f6b656e207472616e73666572206661696c75726560501b604482015290519081900360640190fd5b604080518881526001600160a01b038881166020830152818301879052606082018690529151918a1691339184917f7b01d409597969366dc268d7f957a990d1ca3d3449baf8fb45db67351aecfe789181900360800190a4979650505050505050565b6000808361189d575060009050806118c5565b838302838582816118aa57fe5b04146118be575060029150600090506118c5565b6000925090505b9250929050565b6000808383116118e35750600090508183036118c5565b506003905060006118c5565b6000808261190357506001905060006118c5565b600083858161190e57fe5b04915091509250929050565b600080838301848110611932576000925090506118c5565b5060029150600090506118c5565b604051806101200160405280600081526020016000815260200160008152602001600081526020016000815260200160006001600160a01b0316815260200160006001600160a01b0316815260200160006001600160a01b031681526020016000151581525090565b604080516080810190915280600081526020016000815260200160008152602001600081525090565b60408051602081019091526000815290565b604080516060810190915280600081526020016000815260200160008152509056fe616d6f756e7420657863656564732074686520617661696c61626c652062616c616e63656465706f736974206e6f74206d756c7469706c65206f662074696d652064656c7461726563697069656e742062616c616e63652063616c63756c6174696f6e206572726f7263616c6c6572206973206e6f74207468652073656e646572206f722074686520726563697069656e74206f66207468652073747265616da265627a7a723158209afa899e7a734c3ac847d4ebe72ddfc40a0c6826a5e72c361c80a127d5f2541264736f6c634300050c0032",
    "sourcePath": "/Users/Uni/Documents/GitHub/meTokens/meTokens-vesting/contracts/MeVesting.sol",
    "compiler": {
        "name": "solc",
        "version": "0.5.12+commit.7709ece9"
    },
    "functionHashes": {
        "balanceOf(uint256,address)": "3656eec2",
        "cancelStream(uint256)": "6db9241b",
        "createStream(address,uint256,address)": "f07703bd",
        "deltaOf(uint256)": "a82ccd4d",
        "getStream(uint256)": "894e9a0d",
        "gov()": "12d43a51",
        "nextStreamId()": "1e99d569",
        "setGov(address)": "cfad57a2",
        "turnOnWithdrawals()": "912cb95c",
        "withdrawFromStream(uint256,uint256)": "7a9b2c6c",
        "withdrawable()": "50188301"
    },
    "gasEstimates": {
        "creation": {
            "codeDepositCost": "1375000",
            "executionCost": "41707",
            "totalCost": "1416707"
        },
        "external": {
            "balanceOf(uint256,address)": "infinite",
            "cancelStream(uint256)": "infinite",
            "createStream(address,uint256,address)": "infinite",
            "deltaOf(uint256)": "2983",
            "getStream(uint256)": "2687",
            "gov()": "449",
            "nextStreamId()": "421",
            "setGov(address)": "20823",
            "turnOnWithdrawals()": "20900",
            "withdrawFromStream(uint256,uint256)": "infinite",
            "withdrawable()": "488"
        }
    }
}